{
  "contractName": "Kindtrust",
  "abi": [
    {
      "constant": false,
      "inputs": [
        {
          "name": "_projectId",
          "type": "uint256"
        },
        {
          "name": "_supplier",
          "type": "address"
        },
        {
          "name": "_amount",
          "type": "uint256"
        },
        {
          "name": "_ipfsDescHash",
          "type": "string"
        }
      ],
      "name": "spend",
      "outputs": [],
      "payable": false,
      "stateMutability": "nonpayable",
      "type": "function"
    },
    {
      "constant": true,
      "inputs": [
        {
          "name": "arr",
          "type": "uint256[]"
        },
        {
          "name": "element",
          "type": "uint256"
        }
      ],
      "name": "indexOfUint",
      "outputs": [
        {
          "name": "",
          "type": "uint256"
        }
      ],
      "payable": false,
      "stateMutability": "pure",
      "type": "function"
    },
    {
      "constant": true,
      "inputs": [
        {
          "name": "_purchaseId",
          "type": "uint256"
        }
      ],
      "name": "getPurchase",
      "outputs": [
        {
          "name": "",
          "type": "uint256"
        },
        {
          "name": "",
          "type": "uint256"
        },
        {
          "name": "",
          "type": "address"
        },
        {
          "name": "",
          "type": "uint256"
        },
        {
          "name": "",
          "type": "string"
        },
        {
          "name": "",
          "type": "uint256"
        }
      ],
      "payable": false,
      "stateMutability": "view",
      "type": "function"
    },
    {
      "constant": true,
      "inputs": [],
      "name": "getSuppliers",
      "outputs": [
        {
          "name": "",
          "type": "address[]"
        }
      ],
      "payable": false,
      "stateMutability": "view",
      "type": "function"
    },
    {
      "constant": false,
      "inputs": [
        {
          "name": "_projectId",
          "type": "uint256"
        },
        {
          "name": "_rating",
          "type": "uint256"
        }
      ],
      "name": "rate",
      "outputs": [],
      "payable": false,
      "stateMutability": "nonpayable",
      "type": "function"
    },
    {
      "constant": false,
      "inputs": [],
      "name": "KindTrust",
      "outputs": [],
      "payable": false,
      "stateMutability": "nonpayable",
      "type": "function"
    },
    {
      "constant": false,
      "inputs": [
        {
          "name": "_name",
          "type": "string"
        },
        {
          "name": "_ipfsImgHash",
          "type": "string"
        },
        {
          "name": "_ipfsDescHash",
          "type": "string"
        }
      ],
      "name": "addSupplier",
      "outputs": [],
      "payable": false,
      "stateMutability": "nonpayable",
      "type": "function"
    },
    {
      "constant": true,
      "inputs": [],
      "name": "projectIndex",
      "outputs": [
        {
          "name": "",
          "type": "uint256"
        }
      ],
      "payable": false,
      "stateMutability": "view",
      "type": "function"
    },
    {
      "constant": false,
      "inputs": [
        {
          "name": "_name",
          "type": "string"
        },
        {
          "name": "_category",
          "type": "string"
        },
        {
          "name": "_ipfsImgHash",
          "type": "string"
        },
        {
          "name": "_ipfsDescHash",
          "type": "string"
        },
        {
          "name": "_goal",
          "type": "uint256"
        }
      ],
      "name": "addProject",
      "outputs": [],
      "payable": false,
      "stateMutability": "nonpayable",
      "type": "function"
    },
    {
      "constant": true,
      "inputs": [],
      "name": "getOrganizations",
      "outputs": [
        {
          "name": "",
          "type": "address[]"
        }
      ],
      "payable": false,
      "stateMutability": "view",
      "type": "function"
    },
    {
      "constant": false,
      "inputs": [
        {
          "name": "_name",
          "type": "string"
        },
        {
          "name": "_ipfsImgHash",
          "type": "string"
        },
        {
          "name": "_ipfsDescHash",
          "type": "string"
        }
      ],
      "name": "addOrganization",
      "outputs": [],
      "payable": false,
      "stateMutability": "nonpayable",
      "type": "function"
    },
    {
      "constant": true,
      "inputs": [],
      "name": "purchaseIndex",
      "outputs": [
        {
          "name": "",
          "type": "uint256"
        }
      ],
      "payable": false,
      "stateMutability": "view",
      "type": "function"
    },
    {
      "constant": true,
      "inputs": [
        {
          "name": "_organization",
          "type": "address"
        }
      ],
      "name": "getOrganization",
      "outputs": [
        {
          "name": "",
          "type": "string"
        },
        {
          "name": "",
          "type": "string"
        },
        {
          "name": "",
          "type": "string"
        },
        {
          "name": "",
          "type": "uint256"
        },
        {
          "name": "",
          "type": "uint256"
        },
        {
          "name": "",
          "type": "uint256"
        },
        {
          "name": "",
          "type": "uint256"
        },
        {
          "name": "",
          "type": "uint256[]"
        },
        {
          "name": "",
          "type": "address[]"
        }
      ],
      "payable": false,
      "stateMutability": "view",
      "type": "function"
    },
    {
      "constant": true,
      "inputs": [],
      "name": "getProjects",
      "outputs": [
        {
          "name": "",
          "type": "uint256[]"
        }
      ],
      "payable": false,
      "stateMutability": "view",
      "type": "function"
    },
    {
      "constant": true,
      "inputs": [
        {
          "name": "_projectId",
          "type": "uint256"
        }
      ],
      "name": "getProject",
      "outputs": [
        {
          "name": "",
          "type": "address"
        },
        {
          "name": "",
          "type": "string"
        },
        {
          "name": "",
          "type": "string"
        },
        {
          "name": "",
          "type": "string"
        },
        {
          "name": "",
          "type": "string"
        },
        {
          "name": "",
          "type": "uint256"
        },
        {
          "name": "",
          "type": "uint256"
        },
        {
          "name": "",
          "type": "uint256"
        },
        {
          "name": "",
          "type": "address[]"
        }
      ],
      "payable": false,
      "stateMutability": "view",
      "type": "function"
    },
    {
      "constant": false,
      "inputs": [
        {
          "name": "_projectId",
          "type": "uint256"
        }
      ],
      "name": "donate",
      "outputs": [
        {
          "name": "",
          "type": "bool"
        }
      ],
      "payable": true,
      "stateMutability": "payable",
      "type": "function"
    },
    {
      "constant": true,
      "inputs": [
        {
          "name": "arr",
          "type": "address[]"
        },
        {
          "name": "element",
          "type": "address"
        }
      ],
      "name": "indexOfAddress",
      "outputs": [
        {
          "name": "",
          "type": "uint256"
        }
      ],
      "payable": false,
      "stateMutability": "pure",
      "type": "function"
    },
    {
      "constant": true,
      "inputs": [
        {
          "name": "_supplier",
          "type": "address"
        }
      ],
      "name": "getSupplier",
      "outputs": [
        {
          "name": "",
          "type": "string"
        },
        {
          "name": "",
          "type": "string"
        },
        {
          "name": "",
          "type": "string"
        },
        {
          "name": "",
          "type": "uint256"
        },
        {
          "name": "",
          "type": "address[]"
        },
        {
          "name": "",
          "type": "uint256[]"
        }
      ],
      "payable": false,
      "stateMutability": "view",
      "type": "function"
    },
    {
      "anonymous": false,
      "inputs": [
        {
          "indexed": false,
          "name": "_organization",
          "type": "address"
        },
        {
          "indexed": false,
          "name": "_name",
          "type": "string"
        },
        {
          "indexed": false,
          "name": "_ipfsImgHash",
          "type": "string"
        },
        {
          "indexed": false,
          "name": "_ipfsDescHash",
          "type": "string"
        }
      ],
      "name": "NewOrganization",
      "type": "event"
    },
    {
      "anonymous": false,
      "inputs": [
        {
          "indexed": false,
          "name": "_projectIndex",
          "type": "uint256"
        },
        {
          "indexed": false,
          "name": "_organization",
          "type": "address"
        },
        {
          "indexed": false,
          "name": "_name",
          "type": "string"
        },
        {
          "indexed": false,
          "name": "_category",
          "type": "string"
        },
        {
          "indexed": false,
          "name": "_ipfsImgHash",
          "type": "string"
        },
        {
          "indexed": false,
          "name": "_ipfsDeschash",
          "type": "string"
        },
        {
          "indexed": false,
          "name": "_goal",
          "type": "uint256"
        }
      ],
      "name": "NewProject",
      "type": "event"
    },
    {
      "anonymous": false,
      "inputs": [
        {
          "indexed": false,
          "name": "_supplier",
          "type": "address"
        },
        {
          "indexed": false,
          "name": "_name",
          "type": "string"
        },
        {
          "indexed": false,
          "name": "_ipfsImgHash",
          "type": "string"
        },
        {
          "indexed": false,
          "name": "_ipfsDescHash",
          "type": "string"
        }
      ],
      "name": "NewSupplier",
      "type": "event"
    },
    {
      "anonymous": false,
      "inputs": [
        {
          "indexed": false,
          "name": "_donor",
          "type": "address"
        },
        {
          "indexed": false,
          "name": "_projectId",
          "type": "uint256"
        },
        {
          "indexed": false,
          "name": "_amount",
          "type": "uint256"
        }
      ],
      "name": "NewDonation",
      "type": "event"
    },
    {
      "anonymous": false,
      "inputs": [
        {
          "indexed": false,
          "name": "_purchaseId",
          "type": "uint256"
        },
        {
          "indexed": false,
          "name": "_projectId",
          "type": "uint256"
        },
        {
          "indexed": false,
          "name": "_supplier",
          "type": "address"
        },
        {
          "indexed": false,
          "name": "_amount",
          "type": "uint256"
        },
        {
          "indexed": false,
          "name": "_ipfsDescHash",
          "type": "string"
        },
        {
          "indexed": false,
          "name": "_timestamp",
          "type": "uint256"
        }
      ],
      "name": "NewPurchase",
      "type": "event"
    },
    {
      "anonymous": false,
      "inputs": [
        {
          "indexed": false,
          "name": "_rater",
          "type": "address"
        },
        {
          "indexed": false,
          "name": "_projectId",
          "type": "uint256"
        },
        {
          "indexed": false,
          "name": "_rating",
          "type": "uint256"
        }
      ],
      "name": "Rate",
      "type": "event"
    }
  ],
  "bytecode": "0x6060604052341561000f57600080fd5b61438b8061001e6000396000f3006060604052600436106100fc576000357c0100000000000000000000000000000000000000000000000000000000900463ffffffff16806327e130d4146101015780632e6269e81461018f5780633742a9f71461020657806343516832146102f157806343bebfbf1461035b578063440a4ecf1461038757806346f041951461039c578063631847261461047f57806384f10571146104a85780639754a3a8146105d7578063aadc522914610641578063d1a73e7114610724578063d2c30a6d1461074d578063dcc6012814610983578063f0f3f2c8146109ed578063f14faf6f14610c5d578063fdc2924214610c8d578063fe7009f214610d1a575b600080fd5b341561010c57600080fd5b61018d600480803590602001909190803573ffffffffffffffffffffffffffffffffffffffff1690602001909190803590602001909190803590602001908201803590602001908080601f01602080910402602001604051908101604052809392919081815260200183838082843782019150505050505091905050610f3b565b005b341561019a57600080fd5b6101f06004808035906020019082018035906020019080806020026020016040519081016040528093929190818152602001838360200280828437820191505050505050919080359060200190919050506119af565b6040518082815260200191505060405180910390f35b341561021157600080fd5b6102276004808035906020019091905050611a1f565b604051808781526020018681526020018573ffffffffffffffffffffffffffffffffffffffff1673ffffffffffffffffffffffffffffffffffffffff16815260200184815260200180602001838152602001828103825284818151815260200191508051906020019080838360005b838110156102b1578082015181840152602081019050610296565b50505050905090810190601f1680156102de5780820380516001836020036101000a031916815260200191505b5097505050505050505060405180910390f35b34156102fc57600080fd5b610304611baf565b6040518080602001828103825283818151815260200191508051906020019060200280838360005b8381101561034757808201518184015260208101905061032c565b505050509050019250505060405180910390f35b341561036657600080fd5b6103856004808035906020019091908035906020019091905050611c43565b005b341561039257600080fd5b61039a611fd8565b005b34156103a757600080fd5b61047d600480803590602001908201803590602001908080601f0160208091040260200160405190810160405280939291908181526020018383808284378201915050505050509190803590602001908201803590602001908080601f0160208091040260200160405190810160405280939291908181526020018383808284378201915050505050509190803590602001908201803590602001908080601f01602080910402602001604051908101604052809392919081815260200183838082843782019150505050505091905050611fea565b005b341561048a57600080fd5b61049261243c565b6040518082815260200191505060405180910390f35b34156104b357600080fd5b6105d5600480803590602001908201803590602001908080601f0160208091040260200160405190810160405280939291908181526020018383808284378201915050505050509190803590602001908201803590602001908080601f0160208091040260200160405190810160405280939291908181526020018383808284378201915050505050509190803590602001908201803590602001908080601f0160208091040260200160405190810160405280939291908181526020018383808284378201915050505050509190803590602001908201803590602001908080601f01602080910402602001604051908101604052809392919081815260200183838082843782019150505050505091908035906020019091905050612442565b005b34156105e257600080fd5b6105ea612945565b6040518080602001828103825283818151815260200191508051906020019060200280838360005b8381101561062d578082015181840152602081019050610612565b505050509050019250505060405180910390f35b341561064c57600080fd5b610722600480803590602001908201803590602001908080601f0160208091040260200160405190810160405280939291908181526020018383808284378201915050505050509190803590602001908201803590602001908080601f0160208091040260200160405190810160405280939291908181526020018383808284378201915050505050509190803590602001908201803590602001908080601f016020809104026020016040519081016040528093929190818152602001838380828437820191505050505050919050506129d9565b005b341561072f57600080fd5b610737612e5f565b6040518082815260200191505060405180910390f35b341561075857600080fd5b610784600480803573ffffffffffffffffffffffffffffffffffffffff16906020019091905050612e65565b604051808060200180602001806020018a8152602001898152602001888152602001878152602001806020018060200186810386528f818151815260200191508051906020019080838360005b838110156107ec5780820151818401526020810190506107d1565b50505050905090810190601f1680156108195780820380516001836020036101000a031916815260200191505b5086810385528e818151815260200191508051906020019080838360005b83811015610852578082015181840152602081019050610837565b50505050905090810190601f16801561087f5780820380516001836020036101000a031916815260200191505b5086810384528d818151815260200191508051906020019080838360005b838110156108b857808201518184015260208101905061089d565b50505050905090810190601f1680156108e55780820380516001836020036101000a031916815260200191505b50868103835288818151815260200191508051906020019060200280838360005b83811015610921578082015181840152602081019050610906565b50505050905001868103825287818151815260200191508051906020019060200280838360005b83811015610963578082015181840152602081019050610948565b505050509050019e50505050505050505050505050505060405180910390f35b341561098e57600080fd5b610996613290565b6040518080602001828103825283818151815260200191508051906020019060200280838360005b838110156109d95780820151818401526020810190506109be565b505050509050019250505060405180910390f35b34156109f857600080fd5b610a0e60048080359060200190919050506132ee565b604051808a73ffffffffffffffffffffffffffffffffffffffff1673ffffffffffffffffffffffffffffffffffffffff168152602001806020018060200180602001806020018981526020018881526020018781526020018060200186810386528e818151815260200191508051906020019080838360005b83811015610aa2578082015181840152602081019050610a87565b50505050905090810190601f168015610acf5780820380516001836020036101000a031916815260200191505b5086810385528d818151815260200191508051906020019080838360005b83811015610b08578082015181840152602081019050610aed565b50505050905090810190601f168015610b355780820380516001836020036101000a031916815260200191505b5086810384528c818151815260200191508051906020019080838360005b83811015610b6e578082015181840152602081019050610b53565b50505050905090810190601f168015610b9b5780820380516001836020036101000a031916815260200191505b5086810383528b818151815260200191508051906020019080838360005b83811015610bd4578082015181840152602081019050610bb9565b50505050905090810190601f168015610c015780820380516001836020036101000a031916815260200191505b50868103825287818151815260200191508051906020019060200280838360005b83811015610c3d578082015181840152602081019050610c22565b505050509050019e50505050505050505050505050505060405180910390f35b610c736004808035906020019091905050613739565b604051808215151515815260200191505060405180910390f35b3415610c9857600080fd5b610d0460048080359060200190820180359060200190808060200260200160405190810160405280939291908181526020018383602002808284378201915050505050509190803573ffffffffffffffffffffffffffffffffffffffff16906020019091905050613a71565b6040518082815260200191505060405180910390f35b3415610d2557600080fd5b610d51600480803573ffffffffffffffffffffffffffffffffffffffff16906020019091905050613b0d565b60405180806020018060200180602001878152602001806020018060200186810386528c818151815260200191508051906020019080838360005b83811015610da7578082015181840152602081019050610d8c565b50505050905090810190601f168015610dd45780820380516001836020036101000a031916815260200191505b5086810385528b818151815260200191508051906020019080838360005b83811015610e0d578082015181840152602081019050610df2565b50505050905090810190601f168015610e3a5780820380516001836020036101000a031916815260200191505b5086810384528a818151815260200191508051906020019080838360005b83811015610e73578082015181840152602081019050610e58565b50505050905090810190601f168015610ea05780820380516001836020036101000a031916815260200191505b50868103835288818151815260200191508051906020019060200280838360005b83811015610edc578082015181840152602081019050610ec1565b50505050905001868103825287818151815260200191508051906020019060200280838360005b83811015610f1e578082015181840152602081019050610f03565b505050509050019b50505050505050505050505060405180910390f35b600080610f46613efb565b6000600260008981526020019081526020016000209350600086111515610f6c57600080fd5b3373ffffffffffffffffffffffffffffffffffffffff168460010160009054906101000a900473ffffffffffffffffffffffffffffffffffffffff1673ffffffffffffffffffffffffffffffffffffffff16141515610fca57600080fd5b85846008015485600701540310151515610fe357600080fd5b6000600460008973ffffffffffffffffffffffffffffffffffffffff1673ffffffffffffffffffffffffffffffffffffffff16815260200190815260200160002060000160009054906101000a900473ffffffffffffffffffffffffffffffffffffffff1673ffffffffffffffffffffffffffffffffffffffff161415151561106b57600080fd5b8673ffffffffffffffffffffffffffffffffffffffff166108fc879081150290604051600060405180830381858888f1935050505015156110ab57600080fd5b6000808560010160009054906101000a900473ffffffffffffffffffffffffffffffffffffffff1673ffffffffffffffffffffffffffffffffffffffff1673ffffffffffffffffffffffffffffffffffffffff1681526020019081526020016000209250858360050160008282540192505081905550858360090160008973ffffffffffffffffffffffffffffffffffffffff1673ffffffffffffffffffffffffffffffffffffffff168152602001908152602001600020600082825401925050819055507fffffffffffffffffffffffffffffffffffffffffffffffffffffffffffffffff61122384600a0180548060200260200160405190810160405280929190818152602001828054801561121857602002820191906000526020600020905b8160009054906101000a900473ffffffffffffffffffffffffffffffffffffffff1673ffffffffffffffffffffffffffffffffffffffff16815260200190600101908083116111ce575b505050505089613a71565b141561128f5782600a01805480600101828161123f9190613f4e565b9160005260206000209001600089909190916101000a81548173ffffffffffffffffffffffffffffffffffffffff021916908373ffffffffffffffffffffffffffffffffffffffff160217905550505b60c06040519081016040528060085481526020018981526020018873ffffffffffffffffffffffffffffffffffffffff16815260200187815260200186815260200142815250915081600660006008548152602001908152602001600020600082015181600001556020820151816001015560408201518160020160006101000a81548173ffffffffffffffffffffffffffffffffffffffff021916908373ffffffffffffffffffffffffffffffffffffffff16021790555060608201518160030155608082015181600401908051906020019061136e929190613f7a565b5060a0820151816005015590505085846008016000828254019250508190555083600b0160008873ffffffffffffffffffffffffffffffffffffffff1673ffffffffffffffffffffffffffffffffffffffff16815260200190815260200160002080548060010182816113e19190613ffa565b91600052602060002090016000600854909190915055508584600c0160008973ffffffffffffffffffffffffffffffffffffffff1673ffffffffffffffffffffffffffffffffffffffff16815260200190815250507fffffffffffffffffffffffffffffffffffffffffffffffffffffffffffffffff6114e985600d018054806020026020016040519081016040528092919081815260200182805480156114de57602002820191906000526020600020905b8160009054906101000a900473ffffffffffffffffffffffffffffffffffffffff1673ffffffffffffffffffffffffffffffffffffffff1681526020019060010190808311611494575b505050505089613a71565b14156115555783600d0180548060010182816115059190613f4e565b9160005260206000209001600089909190916101000a81548173ffffffffffffffffffffffffffffffffffffffff021916908373ffffffffffffffffffffffffffffffffffffffff160217905550505b600460008873ffffffffffffffffffffffffffffffffffffffff1673ffffffffffffffffffffffffffffffffffffffff1681526020019081526020016000209050858160040160008282540192505081905550858160050160008660010160009054906101000a900473ffffffffffffffffffffffffffffffffffffffff1673ffffffffffffffffffffffffffffffffffffffff1673ffffffffffffffffffffffffffffffffffffffff168152602001908152602001600020600082825401925050819055507fffffffffffffffffffffffffffffffffffffffffffffffffffffffffffffffff6116f2826006018054806020026020016040519081016040528092919081815260200182805480156116c357602002820191906000526020600020905b8160009054906101000a900473ffffffffffffffffffffffffffffffffffffffff1673ffffffffffffffffffffffffffffffffffffffff1681526020019060010190808311611679575b50505050508660010160009054906101000a900473ffffffffffffffffffffffffffffffffffffffff16613a71565b14156117825780600601805480600101828161170e9190613f4e565b916000526020600020900160008660010160009054906101000a900473ffffffffffffffffffffffffffffffffffffffff16909190916101000a81548173ffffffffffffffffffffffffffffffffffffffff021916908373ffffffffffffffffffffffffffffffffffffffff160217905550505b80600701600089815260200190815260200160002080548060010182816117a99190613ffa565b9160005260206000209001600060085490919091505550858160080160008a8152602001908152602001600020600082825401925050819055507fffffffffffffffffffffffffffffffffffffffffffffffffffffffffffffffff6118608260090180548060200260200160405190810160405280929190818152602001828054801561185557602002820191906000526020600020905b815481526020019060010190808311611841575b50505050508a6119af565b14156118925780600901805480600101828161187c9190613ffa565b916000526020600020900160008a909190915055505b85600e600082825401925050819055507f667560f33a1224e53c18e0afb0dc34ad3971dd22e4998599529254e95c0e46d96008548989898942604051808781526020018681526020018573ffffffffffffffffffffffffffffffffffffffff1673ffffffffffffffffffffffffffffffffffffffff16815260200184815260200180602001838152602001828103825284818151815260200191508051906020019080838360005b8381101561195557808201518184015260208101905061193a565b50505050905090810190601f1680156119825780820380516001836020036101000a031916815260200191505b5097505050505050505060405180910390a160016008600082825401925050819055505050505050505050565b600080600090505b83518110156119f4578284828151811015156119cf57fe5b9060200190602002015114156119e757809150611a18565b80806001019150506119b7565b7fffffffffffffffffffffffffffffffffffffffffffffffffffffffffffffffff91505b5092915050565b600080600080611a2d614026565b6000611a37613efb565b6006600089815260200190815260200160002060c0604051908101604052908160008201548152602001600182015481526020016002820160009054906101000a900473ffffffffffffffffffffffffffffffffffffffff1673ffffffffffffffffffffffffffffffffffffffff1673ffffffffffffffffffffffffffffffffffffffff16815260200160038201548152602001600482018054600181600116156101000203166002900480601f016020809104026020016040519081016040528092919081815260200182805460018160011615610100020316600290048015611b635780601f10611b3857610100808354040283529160200191611b63565b820191906000526020600020905b815481529060010190602001808311611b4657829003601f168201915b505050505081526020016005820154815250509050806000015181602001518260400151836060015184608001518560a001518191509650965096509650965096505091939550919395565b611bb761403a565b6005805480602002602001604051908101604052809291908181526020018280548015611c3957602002820191906000526020600020905b8160009054906101000a900473ffffffffffffffffffffffffffffffffffffffff1673ffffffffffffffffffffffffffffffffffffffff1681526020019060010190808311611bef575b5050505050905090565b60008060026000858152602001908152602001600020915060648311151515611c6b57600080fd5b6000600960003373ffffffffffffffffffffffffffffffffffffffff1673ffffffffffffffffffffffffffffffffffffffff168152602001908152602001600020600086815260200190815260200160002054111515611cca57600080fd5b3373ffffffffffffffffffffffffffffffffffffffff168260010160009054906101000a900473ffffffffffffffffffffffffffffffffffffffff1673ffffffffffffffffffffffffffffffffffffffff1614151515611d2957600080fd5b6000808360010160009054906101000a900473ffffffffffffffffffffffffffffffffffffffff1673ffffffffffffffffffffffffffffffffffffffff1673ffffffffffffffffffffffffffffffffffffffff1681526020019081526020016000209050600115158260090160003373ffffffffffffffffffffffffffffffffffffffff1673ffffffffffffffffffffffffffffffffffffffff16815260200190815260200160002060009054906101000a900460ff161515141515611eb3578281600601600082825401925050819055506001816007016000828254019250508190555060018260090160003373ffffffffffffffffffffffffffffffffffffffff1673ffffffffffffffffffffffffffffffffffffffff16815260200190815260200160002060006101000a81548160ff0219169083151502179055508282600a0160003373ffffffffffffffffffffffffffffffffffffffff1673ffffffffffffffffffffffffffffffffffffffff16815260200190815260200160002081905550611f5f565b82816006016000828254019250508190555081600a0160003373ffffffffffffffffffffffffffffffffffffffff1673ffffffffffffffffffffffffffffffffffffffff1681526020019081526020016000205481600601600082825403925050819055508282600a0160003373ffffffffffffffffffffffffffffffffffffffff1673ffffffffffffffffffffffffffffffffffffffff168152602001908152602001600020819055505b7f66bf77f37f87fc93243053ca5e656498898c439ad478c13ac886456687277963338585604051808473ffffffffffffffffffffffffffffffffffffffff1673ffffffffffffffffffffffffffffffffffffffff168152602001838152602001828152602001935050505060405180910390a150505050565b60006007819055506000600881905550565b611ff261404e565b6000600460003373ffffffffffffffffffffffffffffffffffffffff1673ffffffffffffffffffffffffffffffffffffffff16815260200190815260200160002060000160009054906101000a900473ffffffffffffffffffffffffffffffffffffffff1673ffffffffffffffffffffffffffffffffffffffff1614151561207957600080fd5b60e0604051908101604052803373ffffffffffffffffffffffffffffffffffffffff1681526020018581526020018481526020018381526020016000815260200160006040518059106120c95750595b9080825280602002602001820160405250815260200160006040518059106120ee5750595b9080825280602002602001820160405250815250905080600460003373ffffffffffffffffffffffffffffffffffffffff1673ffffffffffffffffffffffffffffffffffffffff16815260200190815260200160002060008201518160000160006101000a81548173ffffffffffffffffffffffffffffffffffffffff021916908373ffffffffffffffffffffffffffffffffffffffff16021790555060208201518160010190805190602001906121a7929190613f7a565b5060408201518160020190805190602001906121c4929190613f7a565b5060608201518160030190805190602001906121e1929190613f7a565b506080820151816004015560a08201518160060190805190602001906122089291906140c0565b5060c082015181600901908051906020019061222592919061414a565b509050506005805480600101828161223d9190613f4e565b9160005260206000209001600033909190916101000a81548173ffffffffffffffffffffffffffffffffffffffff021916908373ffffffffffffffffffffffffffffffffffffffff160217905550507fb801bacd904d1b8a9ef03597f53a9f86503b51f364c2888b72fc1bd0009d843033858585604051808573ffffffffffffffffffffffffffffffffffffffff1673ffffffffffffffffffffffffffffffffffffffff168152602001806020018060200180602001848103845287818151815260200191508051906020019080838360005b8381101561232b578082015181840152602081019050612310565b50505050905090810190601f1680156123585780820380516001836020036101000a031916815260200191505b50848103835286818151815260200191508051906020019080838360005b83811015612391578082015181840152602081019050612376565b50505050905090810190601f1680156123be5780820380516001836020036101000a031916815260200191505b50848103825285818151815260200191508051906020019080838360005b838110156123f75780820151818401526020810190506123dc565b50505050905090810190601f1680156124245780820380516001836020036101000a031916815260200191505b5097505050505050505060405180910390a150505050565b60075481565b61244a614197565b60008060003373ffffffffffffffffffffffffffffffffffffffff1673ffffffffffffffffffffffffffffffffffffffff16815260200190815260200160002060000160009054906101000a900473ffffffffffffffffffffffffffffffffffffffff1673ffffffffffffffffffffffffffffffffffffffff16141515156124d157600080fd5b6101406040519081016040528060075481526020013373ffffffffffffffffffffffffffffffffffffffff1681526020018781526020018681526020018581526020018481526020018381526020016000815260200160008152602001600060405180591061253d5750595b90808252806020026020018201604052508152509050806002600060075481526020019081526020016000206000820151816000015560208201518160010160006101000a81548173ffffffffffffffffffffffffffffffffffffffff021916908373ffffffffffffffffffffffffffffffffffffffff16021790555060408201518160020190805190602001906125d6929190613f7a565b5060608201518160030190805190602001906125f3929190613f7a565b506080820151816004019080519060200190612610929190613f7a565b5060a082015181600501908051906020019061262d929190613f7a565b5060c0820151816006015560e08201518160070155610100820151816008015561012082015181600d01908051906020019061266a9291906140c0565b50905050600380548060010182816126829190613ffa565b91600052602060002090016000600754909190915055506000803373ffffffffffffffffffffffffffffffffffffffff1673ffffffffffffffffffffffffffffffffffffffff16815260200190815260200160002060080180548060010182816126ec9190613ffa565b91600052602060002090016000600754909190915055507fc1e161fe6af421a2f5f8859aee5df14a951a94e6a6c3978837c97a65b274718d600754338888888888604051808881526020018773ffffffffffffffffffffffffffffffffffffffff1673ffffffffffffffffffffffffffffffffffffffff1681526020018060200180602001806020018060200186815260200185810385528a818151815260200191508051906020019080838360005b838110156127b757808201518184015260208101905061279c565b50505050905090810190601f1680156127e45780820380516001836020036101000a031916815260200191505b50858103845289818151815260200191508051906020019080838360005b8381101561281d578082015181840152602081019050612802565b50505050905090810190601f16801561284a5780820380516001836020036101000a031916815260200191505b50858103835288818151815260200191508051906020019080838360005b83811015612883578082015181840152602081019050612868565b50505050905090810190601f1680156128b05780820380516001836020036101000a031916815260200191505b50858103825287818151815260200191508051906020019080838360005b838110156128e95780820151818401526020810190506128ce565b50505050905090810190601f1680156129165780820380516001836020036101000a031916815260200191505b509b50505050505050505050505060405180910390a16001600760008282540192505081905550505050505050565b61294d61403a565b60018054806020026020016040519081016040528092919081815260200182805480156129cf57602002820191906000526020600020905b8160009054906101000a900473ffffffffffffffffffffffffffffffffffffffff1673ffffffffffffffffffffffffffffffffffffffff1681526020019060010190808311612985575b5050505050905090565b6129e161421f565b60008060003373ffffffffffffffffffffffffffffffffffffffff1673ffffffffffffffffffffffffffffffffffffffff16815260200190815260200160002060000160009054906101000a900473ffffffffffffffffffffffffffffffffffffffff1673ffffffffffffffffffffffffffffffffffffffff16141515612a6757600080fd5b610140604051908101604052803373ffffffffffffffffffffffffffffffffffffffff168152602001858152602001848152602001838152602001600081526020016000815260200160008152602001600081526020016000604051805910612acd5750595b908082528060200260200182016040525081526020016000604051805910612af25750595b90808252806020026020018201604052508152509050806000803373ffffffffffffffffffffffffffffffffffffffff1673ffffffffffffffffffffffffffffffffffffffff16815260200190815260200160002060008201518160000160006101000a81548173ffffffffffffffffffffffffffffffffffffffff021916908373ffffffffffffffffffffffffffffffffffffffff1602179055506020820151816001019080519060200190612baa929190613f7a565b506040820151816002019080519060200190612bc7929190613f7a565b506060820151816003019080519060200190612be4929190613f7a565b506080820151816004015560a0820151816005015560c0820151816006015560e08201518160070155610100820151816008019080519060200190612c2a92919061414a565b5061012082015181600a019080519060200190612c489291906140c0565b5090505060018054806001018281612c609190613f4e565b9160005260206000209001600033909190916101000a81548173ffffffffffffffffffffffffffffffffffffffff021916908373ffffffffffffffffffffffffffffffffffffffff160217905550507fd81bd92d2e4328f1077c64a029dbf6430c116e57534bbd3f504f55ec15ab510a33858585604051808573ffffffffffffffffffffffffffffffffffffffff1673ffffffffffffffffffffffffffffffffffffffff168152602001806020018060200180602001848103845287818151815260200191508051906020019080838360005b83811015612d4e578082015181840152602081019050612d33565b50505050905090810190601f168015612d7b5780820380516001836020036101000a031916815260200191505b50848103835286818151815260200191508051906020019080838360005b83811015612db4578082015181840152602081019050612d99565b50505050905090810190601f168015612de15780820380516001836020036101000a031916815260200191505b50848103825285818151815260200191508051906020019080838360005b83811015612e1a578082015181840152602081019050612dff565b50505050905090810190601f168015612e475780820380516001836020036101000a031916815260200191505b5097505050505050505060405180910390a150505050565b60085481565b612e6d614026565b612e75614026565b612e7d614026565b600080600080612e8b6142a7565b612e9361403a565b612e9b61421f565b6000808c73ffffffffffffffffffffffffffffffffffffffff1673ffffffffffffffffffffffffffffffffffffffff16815260200190815260200160002061014060405190810160405290816000820160009054906101000a900473ffffffffffffffffffffffffffffffffffffffff1673ffffffffffffffffffffffffffffffffffffffff1673ffffffffffffffffffffffffffffffffffffffff168152602001600182018054600181600116156101000203166002900480601f016020809104026020016040519081016040528092919081815260200182805460018160011615610100020316600290048015612fd55780601f10612faa57610100808354040283529160200191612fd5565b820191906000526020600020905b815481529060010190602001808311612fb857829003601f168201915b50505050508152602001600282018054600181600116156101000203166002900480601f0160208091040260200160405190810160405280929190818152602001828054600181600116156101000203166002900480156130775780601f1061304c57610100808354040283529160200191613077565b820191906000526020600020905b81548152906001019060200180831161305a57829003601f168201915b50505050508152602001600382018054600181600116156101000203166002900480601f0160208091040260200160405190810160405280929190818152602001828054600181600116156101000203166002900480156131195780601f106130ee57610100808354040283529160200191613119565b820191906000526020600020905b8154815290600101906020018083116130fc57829003601f168201915b50505050508152602001600482015481526020016005820154815260200160068201548152602001600782015481526020016008820180548060200260200160405190810160405280929190818152602001828054801561319957602002820191906000526020600020905b815481526020019060010190808311613185575b50505050508152602001600a820180548060200260200160405190810160405280929190818152602001828054801561322757602002820191906000526020600020905b8160009054906101000a900473ffffffffffffffffffffffffffffffffffffffff1673ffffffffffffffffffffffffffffffffffffffff16815260200190600101908083116131dd575b505050505081525050905080602001518160400151826060015183608001518460a001518560c001518660e00151876101000151886101200151889850879750869650819150809050995099509950995099509950995099509950509193959799909294969850565b6132986142a7565b60038054806020026020016040519081016040528092919081815260200182805480156132e457602002820191906000526020600020905b8154815260200190600101908083116132d0575b5050505050905090565b60006132f8614026565b613300614026565b613308614026565b613310614026565b600080600061331d61403a565b613325614197565b600260008c81526020019081526020016000206101406040519081016040529081600082015481526020016001820160009054906101000a900473ffffffffffffffffffffffffffffffffffffffff1673ffffffffffffffffffffffffffffffffffffffff1673ffffffffffffffffffffffffffffffffffffffff168152602001600282018054600181600116156101000203166002900480601f01602080910402602001604051908101604052809291908181526020018280546001816001161561010002031660029004801561343e5780601f106134135761010080835404028352916020019161343e565b820191906000526020600020905b81548152906001019060200180831161342157829003601f168201915b50505050508152602001600382018054600181600116156101000203166002900480601f0160208091040260200160405190810160405280929190818152602001828054600181600116156101000203166002900480156134e05780601f106134b5576101008083540402835291602001916134e0565b820191906000526020600020905b8154815290600101906020018083116134c357829003601f168201915b50505050508152602001600482018054600181600116156101000203166002900480601f0160208091040260200160405190810160405280929190818152602001828054600181600116156101000203166002900480156135825780601f1061355757610100808354040283529160200191613582565b820191906000526020600020905b81548152906001019060200180831161356557829003601f168201915b50505050508152602001600582018054600181600116156101000203166002900480601f0160208091040260200160405190810160405280929190818152602001828054600181600116156101000203166002900480156136245780601f106135f957610100808354040283529160200191613624565b820191906000526020600020905b81548152906001019060200180831161360757829003601f168201915b50505050508152602001600682015481526020016007820154815260200160088201548152602001600d82018054806020026020016040519081016040528092919081815260200182805480156136d057602002820191906000526020600020905b8160009054906101000a900473ffffffffffffffffffffffffffffffffffffffff1673ffffffffffffffffffffffffffffffffffffffff1681526020019060010190808311613686575b505050505081525050905080602001518160400151826060015183608001518460a001518560c001518660e00151876101000151886101200151879750869650859550849450809050995099509950995099509950995099509950509193959799909294969850565b6000803411151561374957600080fd5b346000803373ffffffffffffffffffffffffffffffffffffffff1673ffffffffffffffffffffffffffffffffffffffff1681526020019081526020016000206004016000828254019250508190555034600260008481526020019081526020016000206007016000828254019250508190555034600960003373ffffffffffffffffffffffffffffffffffffffff1673ffffffffffffffffffffffffffffffffffffffff1681526020019081526020016000206000848152602001908152602001600020600082825401925050819055507fffffffffffffffffffffffffffffffffffffffffffffffffffffffffffffffff6138d2600a60003373ffffffffffffffffffffffffffffffffffffffff1673ffffffffffffffffffffffffffffffffffffffff1681526020019081526020016000208054806020026020016040519081016040528092919081815260200182805480156138c757602002820191906000526020600020905b8154815260200190600101908083116138b3575b5050505050846119af565b141561393f57600a60003373ffffffffffffffffffffffffffffffffffffffff1673ffffffffffffffffffffffffffffffffffffffff16815260200190815260200160002080548060010182816139299190613ffa565b9160005260206000209001600084909190915055505b34600b60003373ffffffffffffffffffffffffffffffffffffffff1673ffffffffffffffffffffffffffffffffffffffff1681526020019081526020016000206000828254019250508190555034600b60003373ffffffffffffffffffffffffffffffffffffffff1673ffffffffffffffffffffffffffffffffffffffff1681526020019081526020016000205414156139e5576001600c600082825401925050819055505b34600d600082825401925050819055507f0d968ed0843603b466b27a4b0092affa11344caafe6d80e695c16ef623fd42bd338334604051808473ffffffffffffffffffffffffffffffffffffffff1673ffffffffffffffffffffffffffffffffffffffff168152602001838152602001828152602001935050505060405180910390a160019050919050565b600080600090505b8351811015613ae2578273ffffffffffffffffffffffffffffffffffffffff168482815181101515613aa757fe5b9060200190602002015173ffffffffffffffffffffffffffffffffffffffff161415613ad557809150613b06565b8080600101915050613a79565b7fffffffffffffffffffffffffffffffffffffffffffffffffffffffffffffffff91505b5092915050565b613b15614026565b613b1d614026565b613b25614026565b6000613b2f61403a565b613b376142a7565b613b3f61404e565b600460008973ffffffffffffffffffffffffffffffffffffffff1673ffffffffffffffffffffffffffffffffffffffff16815260200190815260200160002060e060405190810160405290816000820160009054906101000a900473ffffffffffffffffffffffffffffffffffffffff1673ffffffffffffffffffffffffffffffffffffffff1673ffffffffffffffffffffffffffffffffffffffff168152602001600182018054600181600116156101000203166002900480601f016020809104026020016040519081016040528092919081815260200182805460018160011615610100020316600290048015613c795780601f10613c4e57610100808354040283529160200191613c79565b820191906000526020600020905b815481529060010190602001808311613c5c57829003601f168201915b50505050508152602001600282018054600181600116156101000203166002900480601f016020809104026020016040519081016040528092919081815260200182805460018160011615610100020316600290048015613d1b5780601f10613cf057610100808354040283529160200191613d1b565b820191906000526020600020905b815481529060010190602001808311613cfe57829003601f168201915b50505050508152602001600382018054600181600116156101000203166002900480601f016020809104026020016040519081016040528092919081815260200182805460018160011615610100020316600290048015613dbd5780601f10613d9257610100808354040283529160200191613dbd565b820191906000526020600020905b815481529060010190602001808311613da057829003601f168201915b505050505081526020016004820154815260200160068201805480602002602001604051908101604052809291908181526020018280548015613e5557602002820191906000526020600020905b8160009054906101000a900473ffffffffffffffffffffffffffffffffffffffff1673ffffffffffffffffffffffffffffffffffffffff1681526020019060010190808311613e0b575b5050505050815260200160098201805480602002602001604051908101604052809291908181526020018280548015613ead57602002820191906000526020600020905b815481526020019060010190808311613e99575b505050505081525050905080602001518160400151826060015183608001518460a001518560c001518595508494508393508191508090509650965096509650965096505091939550919395565b60c0604051908101604052806000815260200160008152602001600073ffffffffffffffffffffffffffffffffffffffff16815260200160008152602001613f416142bb565b8152602001600081525090565b815481835581811511613f7557818360005260206000209182019101613f7491906142cf565b5b505050565b828054600181600116156101000203166002900490600052602060002090601f016020900481019282601f10613fbb57805160ff1916838001178555613fe9565b82800160010185558215613fe9579182015b82811115613fe8578251825591602001919060010190613fcd565b5b509050613ff691906142cf565b5090565b8154818355818115116140215781836000526020600020918201910161402091906142cf565b5b505050565b602060405190810160405280600081525090565b602060405190810160405280600081525090565b60e060405190810160405280600073ffffffffffffffffffffffffffffffffffffffff16815260200161407f6142bb565b815260200161408c6142bb565b81526020016140996142bb565b8152602001600081526020016140ad6142f4565b81526020016140ba614308565b81525090565b828054828255906000526020600020908101928215614139579160200282015b828111156141385782518260006101000a81548173ffffffffffffffffffffffffffffffffffffffff021916908373ffffffffffffffffffffffffffffffffffffffff160217905550916020019190600101906140e0565b5b509050614146919061431c565b5090565b828054828255906000526020600020908101928215614186579160200282015b8281111561418557825182559160200191906001019061416a565b5b50905061419391906142cf565b5090565b6101406040519081016040528060008152602001600073ffffffffffffffffffffffffffffffffffffffff1681526020016141d06142bb565b81526020016141dd6142bb565b81526020016141ea6142bb565b81526020016141f76142bb565b81526020016000815260200160008152602001600081526020016142196142f4565b81525090565b61014060405190810160405280600073ffffffffffffffffffffffffffffffffffffffff1681526020016142516142bb565b815260200161425e6142bb565b815260200161426b6142bb565b815260200160008152602001600081526020016000815260200160008152602001614294614308565b81526020016142a16142f4565b81525090565b602060405190810160405280600081525090565b602060405190810160405280600081525090565b6142f191905b808211156142ed5760008160009055506001016142d5565b5090565b90565b602060405190810160405280600081525090565b602060405190810160405280600081525090565b61435c91905b8082111561435857600081816101000a81549073ffffffffffffffffffffffffffffffffffffffff021916905550600101614322565b5090565b905600a165627a7a72305820edee98e2e461fcb61ff0b4cdfd72eaecc5d7355995961b5194d39138faef27d30029",
  "source": "pragma solidity ^0.4.18;\n\ncontract Kindtrust {\n  struct Organization {\n    // An image and description per item will be written to IPFS; resulting hashes stored here\n    address organization;\n    string name;\n    string ipfsImgHash;\n    string ipfsDescHash;\n    uint totalReceived;\n    uint totalSpent;\n\n    // People can rate projects for efficiency of spending (0-100%)\n    // This is the sum of these ratings (unweighted to keep big charities accountable on small projects)\n    uint efficiencyRatingsSum;\n\n    // Number across all projects (more = more reliable). Average rating is efficiencyRatingsSum / numEfficiencyRatings.\n    uint numEfficiencyRatings;\n\n    // List of all the organization's project IDs; total paid to supplier by address; list of all suppliers worked with\n    uint[] projects;\n    mapping (address => uint) supplierTotals;\n    address[] suppliers;\n  }\n\n  // Mapping of address to organization and list of all organization addresses\n  mapping (address => Organization) organizationByAddress;\n  address[] organizations;\n\n  struct Project {\n    uint projectId;\n    address organization;\n    string name;\n    string category;\n    string ipfsImgHash;\n    string ipfsDescHash;\n    uint goal;\n    uint totalReceived;\n    uint totalSpent;\n\n    // People should be able to update their rating. This keeps track of who rated this project and the rating they gave.\n    mapping (address => bool) ratedEfficiency;\n    mapping (address => uint) efficiencyRating;\n\n    // Mapping of supplier address to list of purchase IDs with that supplier\n    mapping (address => uint[]) supplierPurchases;\n    mapping (address => uint) supplierTotals;\n    address[] suppliers;\n  }\n\n  // Mapping of projectId to project and list of all projectIds\n  mapping (uint => Project) projectById;\n  uint[] projects;\n\n  struct Supplier {\n    address supplier;\n    string name;\n    string ipfsImgHash;\n    string ipfsDescHash;\n    uint totalReceived;\n\n    // Mapping of organization address to total received; list of all organizations worked with\n    mapping (address => uint) organizationTotals;\n    address[] organizations;\n\n    // Mapping of project ID to list of purchase IDs; mapping of project ID to total received; projects worked with\n    mapping (uint => uint[]) projectPurchases;\n    mapping (uint => uint) projectTotals;\n    uint[] projects;\n  }\n\n  mapping (address => Supplier) supplierByAddress;\n  address[] suppliers;\n\n  struct Purchase {\n    // Time of purchase is in seconds since epoch\n    uint purchaseId;\n    uint projectId;\n    address supplier;\n    uint amount;\n    string ipfsDescHash;\n    uint timestamp;\n  }\n\n  // Mapping of purchase ID to Purchase\n  mapping (uint => Purchase) purchaseById;\n\n  // Counters for unique indexes\n  uint public projectIndex;\n  uint public purchaseIndex;\n\n  // Information for donors: mapping from projectId to amount, list of projectIds donated to, total donated\n  mapping (address => mapping (uint => uint)) donatedPerProject;\n  mapping (address => uint[]) projectsDonatedTo;\n  mapping (address => uint) totalDonated;\n\n  // Platform usage statistics\n  uint numDonors;\n  uint amountDonated;\n  uint amountSpent;\n\n  // Events for a server to listen to, server can store in DB for easier querying\n  event NewOrganization(address _organization, string _name, string _ipfsImgHash, string _ipfsDescHash);\n  event NewProject(uint _projectIndex, address _organization, string _name, string _category, string _ipfsImgHash,\n      string _ipfsDeschash, uint _goal);\n  event NewSupplier(address _supplier, string _name, string _ipfsImgHash, string _ipfsDescHash);\n  event NewDonation(address _donor, uint _projectId, uint _amount);\n  event NewPurchase(uint _purchaseId, uint _projectId, address _supplier, uint _amount, string _ipfsDescHash,\n      uint _timestamp);\n  event Rate(address _rater, uint _projectId, uint _rating);\n\n  // Constructor\n  function KindTrust() public {\n    projectIndex = 0;\n    purchaseIndex = 0;\n  }\n\n  // Index-of helper functions\n  function indexOfUint(uint[] arr, uint element) pure public returns (uint) {\n    for (uint i = 0; i < arr.length; i++) {\n      if (arr[i] == element) {\n        return i;\n      }\n    }\n    return uint(-1);\n  }\n\n  function indexOfAddress(address[] arr, address element) pure public returns (uint) {\n    for (uint i = 0; i < arr.length; i++) {\n      if (arr[i] == element) {\n        return i;\n      }\n    }\n    return uint(-1);\n  }\n\n  // Add organizations, projects, and suppliers\n  function addOrganization(string _name, string _ipfsImgHash, string _ipfsDescHash) public {\n    // Cannot override existing organizations\n    require(organizationByAddress[msg.sender].organization == 0);\n\n    Organization memory organization = Organization(msg.sender, _name, _ipfsImgHash, _ipfsDescHash, 0, 0, 0, 0,\n        new uint[](0), new address[](0));\n    organizationByAddress[msg.sender] = organization;\n    organizations.push(msg.sender);\n\n    NewOrganization(msg.sender, _name, _ipfsImgHash, _ipfsDescHash);\n  }\n\n  function addProject(string _name, string _category, string _ipfsImgHash, string _ipfsDescHash, uint _goal) public {\n    // Sender must be a registered organization\n    require(organizationByAddress[msg.sender].organization != 0);\n\n    Project memory project = Project(projectIndex, msg.sender, _name, _category, _ipfsImgHash, _ipfsDescHash,\n        _goal, 0, 0, new address[](0));\n    projectById[projectIndex] = project;\n    projects.push(projectIndex);\n\n    organizationByAddress[msg.sender].projects.push(projectIndex);\n    NewProject(projectIndex, msg.sender, _name, _category, _ipfsImgHash, _ipfsDescHash, _goal);\n    projectIndex += 1;\n  }\n\n  function addSupplier(string _name, string _ipfsImgHash, string _ipfsDescHash) public {\n    // Cannot override existing suppliers\n    require(supplierByAddress[msg.sender].supplier == 0);\n\n    Supplier memory supplier = Supplier(msg.sender, _name, _ipfsImgHash, _ipfsDescHash, 0, new address[](0),\n        new uint[](0));\n    supplierByAddress[msg.sender] = supplier;\n    suppliers.push(msg.sender);\n\n    NewSupplier(msg.sender, _name, _ipfsImgHash, _ipfsDescHash);\n  }\n\n  // Get organizations, projects, and suppliers\n  function getOrganization(address _organization) view public returns (string, string, string, uint, uint, uint, uint,\n      uint[], address[]) {\n    Organization memory o = organizationByAddress[_organization];\n    return (o.name, o.ipfsImgHash, o.ipfsDescHash, o.totalReceived, o.totalSpent, o.efficiencyRatingsSum,\n        o.numEfficiencyRatings, o.projects, o.suppliers);\n  }\n\n  function getProject(uint _projectId) view public returns (address, string, string, string, string, uint, uint, uint,\n      address[]) {\n    Project memory p = projectById[_projectId];\n    return (p.organization, p.name, p.category, p.ipfsImgHash, p.ipfsDescHash, p.goal, p.totalReceived, p.totalSpent,\n        p.suppliers);\n  }\n\n  function getSupplier(address _supplier) view public returns (string, string, string, uint, address[], uint[]) {\n    Supplier memory s = supplierByAddress[_supplier];\n    return (s.name, s.ipfsImgHash, s.ipfsDescHash, s.totalReceived, s.organizations, s.projects);\n  }\n\n  function getPurchase(uint _purchaseId) view public returns (uint, uint, address, uint, string, uint) {\n    Purchase memory p = purchaseById[_purchaseId];\n    return (p.purchaseId, p.projectId, p.supplier, p.amount, p.ipfsDescHash, p.timestamp);\n  }\n\n  function getOrganizations() view public returns (address[]) {\n    return organizations;\n  }\n\n  function getProjects() view public returns (uint[]) {\n    return projects;\n  }\n\n  function getSuppliers() view public returns (address[]) {\n    return suppliers;\n  }\n\n  function donate(uint _projectId) payable public returns (bool) {\n    // Users can call this payable function to donate to a project; the money will be stored here\n    require(msg.value > 0);\n\n    // Update organization state\n    organizationByAddress[msg.sender].totalReceived += msg.value;\n\n    // Project state\n    projectById[_projectId].totalReceived += msg.value;\n\n    // Donor state\n    donatedPerProject[msg.sender][_projectId] += msg.value;\n    if (indexOfUint(projectsDonatedTo[msg.sender], _projectId) == uint(-1)) {\n      projectsDonatedTo[msg.sender].push(_projectId);\n    }\n    totalDonated[msg.sender] += msg.value;\n\n    // Platform statistics\n    if (totalDonated[msg.sender] == msg.value) {\n      // Increment number of donors if donor's total donated equals this (first) donation\n      numDonors += 1;\n    }\n    amountDonated += msg.value;\n\n    // Event for new donation\n    NewDonation(msg.sender, _projectId, msg.value);\n    return true;\n  }\n\n  function spend(uint _projectId, address _supplier, uint _amount, string _ipfsDescHash) public {\n    // Only the owner of a project can spend from the project's donations\n    Project storage project = projectById[_projectId];\n    require(_amount > 0);\n    require(project.organization == msg.sender);\n    require(project.totalReceived - project.totalSpent >= _amount);\n\n    // Supplier must be registered\n    require(supplierByAddress[_supplier].supplier != 0);\n\n    // Transfer money to the supplier\n    _supplier.transfer(_amount);\n\n    // Update organization state\n    Organization storage organization = organizationByAddress[project.organization];\n    organization.totalSpent += _amount;\n    organization.supplierTotals[_supplier] += _amount;\n    if (indexOfAddress(organization.suppliers, _supplier) == uint(-1)) {\n      organization.suppliers.push(_supplier);\n    }\n\n    // Create purchase instance, with time in seconds since epoch\n    Purchase memory purchase = Purchase(purchaseIndex, _projectId, _supplier, _amount, _ipfsDescHash, now);\n    purchaseById[purchaseIndex] = purchase;\n\n    // Project state\n    project.totalSpent += _amount;\n    project.supplierPurchases[_supplier].push(purchaseIndex);\n    project.supplierTotals[_supplier] == _amount;\n    if (indexOfAddress(project.suppliers, _supplier) == uint(-1)) {\n      project.suppliers.push(_supplier);\n    }\n\n    // Supplier state (interacts with both organization and project)\n    Supplier storage supplier = supplierByAddress[_supplier];\n    supplier.totalReceived += _amount;\n    supplier.organizationTotals[project.organization] += _amount;\n    if (indexOfAddress(supplier.organizations, project.organization) == uint(-1)) {\n      supplier.organizations.push(project.organization);\n    }\n    supplier.projectPurchases[_projectId].push(purchaseIndex);\n    supplier.projectTotals[_projectId] += _amount;\n    if (indexOfUint(supplier.projects, _projectId) == uint(-1)) {\n      supplier.projects.push(_projectId);\n    }\n\n    // Platform usage statistics\n    amountSpent += _amount;\n\n    // Event for new purchase\n    NewPurchase(purchaseIndex, _projectId, _supplier, _amount, _ipfsDescHash, now);\n    purchaseIndex += 1;\n  }\n\n  function rate(uint _projectId, uint _rating) public {\n    // The rating must be a valid percentage [0-100]\n    Project storage project = projectById[_projectId];\n    require(_rating <= 100);\n\n    // To prevent trolling, users can only rate projects they have donated to\n    require(donatedPerProject[msg.sender][_projectId] > 0);\n\n    // Also, organization behind the project cannot rate it\n    require(project.organization != msg.sender);\n\n    Organization storage organization = organizationByAddress[project.organization];\n\n    // Check if user is rating this project for the first time\n    if (project.ratedEfficiency[msg.sender] != true) {\n      // Update organization state\n      organization.efficiencyRatingsSum += _rating;\n      organization.numEfficiencyRatings += 1;\n\n      // Update project state\n      project.ratedEfficiency[msg.sender] = true;\n      project.efficiencyRating[msg.sender] = _rating;\n    } else {\n      // User is updating a previous rating\n      organization.efficiencyRatingsSum += _rating;\n      organization.efficiencyRatingsSum -= project.efficiencyRating[msg.sender];\n      project.efficiencyRating[msg.sender] = _rating;\n    }\n\n    // Event\n    Rate(msg.sender, _projectId, _rating);\n  }\n}\n",
  "sourcePath": "/Users/Jason/Desktop/govh/submission/KindTrust/contracts/KindTrust.sol",
  "compiler": {
    "name": "solc",
    "version": "0.4.18+commit.9cf6e910.Emscripten.clang"
  },
  "schemaVersion": "1.0.1",
  "updatedAt": "2017-12-31T07:44:56.782Z"
}